:020000040000FA
:1000000001280313831606309F00303085008601D7
:10001000831285018601A001A101A2012014051E01
:10002000132820141728851E172820101728201899
:1000300026281A283020A20B0F283020A10B0F30C1
:100040002102031C0F280F30A1000F283020A20F1F
:100050000F28A10F10302102031C0F28A1010F2827
:10006000362021088500220886000800FF30A30002
:0E007000FF30A400A40B3A28A30B3828080088
:02007E0000344C
:0200800000344A
:02400E00393F38
:00000001FF
