:020000040000FA
:020000000528D1
:040002000034003492
:080008002328831686018501FF
:100010000C148312313090008C01C0308B000B30F7
:100020008F00DC308E00A101A201A0018514051013
:100030002108472086004320851005142208472008
:100040008600432016288B130B130C1C40280C1021
:100050000B308F00DC308E00A00A2008023C031910
:1000600032284028A001A10A21080A3C0319392896
:100070004028A101A20A2208063C0319A201402837
:100080008B170B170900A301A30B44280800820754
:100090003F3406345B344F3466346D347D3407347A
:0400A0007F346F3406
:02400E00793FF8
:00000001FF
